:100000000C9453000C947B000C947B000C947B00AC
:100010000C947B000C947B000C947B000C947B0074
:100020000C947B000C947B000C947B000C947B0064
:100030000C947B000C947B000C947B000C947B0054
:100040000C9415020C947B000C9485020C945F02B6
:100050000C947B000C947B000C947B000C947B0034
:100060000C947B000C947B004E414E494E495459F0
:10007000494E46CDCCCC3D0AD7233C17B7D1387773
:10008000CC2B329595E6241FB14F0A000020410089
:1000900000C84200401C4620BCBE4CCA1B0E5AAED3
:1000A000C59D7400F60411241FBECFEFD8E0DEBF5B
:1000B000CDBF22E0A4E6B1E001C01D92A737B20790
:1000C000E1F711E0A0E0B1E0E2EAF2E102C0059060
:1000D0000D92A436B107D9F710E0C3E5D0E004C013
:1000E0002197FE010E949408C235D107C9F70E94EA
:1000F000B7020C944F090C940000AF92BF92CF92BC
:10010000DF92EF92FF920F931F93CF93DF936C01D7
:100110007B018B01040F151FEB015E01AE18BF08B8
:10012000C017D10759F06991D601ED91FC9101906A
:10013000F081E02DC6010995892B79F7C501DF9182
:10014000CF911F910F91FF90EF90DF90CF90BF90D4
:10015000AF900895FC01538D448D252F30E0842FFE
:1001600090E0821B930B541710F0CF9608950197DF
:100170000895FC01918D828D981761F0A28DAE0FCC
:10018000BF2FB11D5D968C91928D9F5F9F73928F53
:1001900090E008958FEF9FEF0895FC01918D828D7F
:1001A000981731F0828DE80FF11D858D90E008954C
:1001B0008FEF9FEF0895FC01918D228D892F90E0A4
:1001C000805C9F4F821B91098F739927089586ED5C
:1001D00091E00E94DB0021E0892B09F420E0822FCE
:1001E000089580E090E0892B29F00E94E7008111BA
:1001F0000C9400000895FC01A48DA80FB92FB11D27
:10020000A35ABF4F2C91848D90E001968F7399274C
:10021000848FA689B7892C93A089B1898C9183702A
:1002200080648C93938D848D981306C00288F38923
:10023000E02D80818F7D80830895EF92FF920F9350
:100240001F93CF93DF93EC0181E0888F9B8D8C8D82
:1002500098131AC0E889F989808185FF15C09FB776
:10026000F894EE89FF896083E889F9898081837039
:10027000806480839FBF81E090E0DF91CF911F91E8
:100280000F91FF90EF900895F62E0B8D10E00F5F09
:100290001F4F0F731127E02E8C8D8E110CC00FB6DF
:1002A00007FCFACFE889F989808185FFF5CFCE0177
:1002B0000E94FB00F1CFEB8DEC0FFD2FF11DE35AF7
:1002C000FF4FF0829FB7F8940B8FEA89FB898081FA
:1002D0008062CFCFCF93DF93EC01888D8823B9F074
:1002E000AA89BB89E889F9898C9185FD03C0808141
:1002F00086FD0DC00FB607FCF7CF8C9185FFF2CFBE
:10030000808185FFEDCFCE010E94FB00E9CFDF9118
:10031000CF910895FC0101900020E9F73197AF01DA
:10032000481B590BBC0186ED91E00C947D008F9227
:100330009F92AF92BF920F931F93CF93DF93CDB74E
:10034000DEB7A1970FB6F894DEBF0FBECDBF19A2DE
:10035000423008F44AE08E010F5D1F4F842E912C2D
:10036000B12CA12CA50194010E947208E62FB901BD
:10037000CA01EA30F4F4E05DD801EE938D01232B3D
:10038000242B252B79F790E080E0109719F0CD0110
:100390000E948A01A1960FB6F894DEBF0FBECDBFB2
:1003A000DF91CF911F910F91BF90AF909F908F9051
:1003B0000895E95CE1CFCF93DF930E948A01EC01BD
:1003C00082E191E00E948A018C0F9D1FDF91CF9105
:1003D0000895CF92DF92EF92FF92CF93DF9397FF32
:1003E0001BC06B017C016DE286ED91E00E941D0156
:1003F000EC0166277727CB016C197D098E099F09CF
:100400004AE00E9497018C0F9D1FDF91CF91FF90D2
:10041000EF90DF90CF9008954AE0DF91CF91FF9069
:10042000EF90DF90CF900C9497011F920F920FB630
:100430000F9211242F933F938F939F93AF93BF936A
:100440008091D2019091D301A091D401B091D501B6
:100450003091D10123E0230F2D3758F50196A11DCE
:10046000B11D2093D1018093D2019093D301A09329
:10047000D401B093D5018091CD019091CE01A0918E
:10048000CF01B091D0010196A11DB11D8093CD0186
:100490009093CE01A093CF01B093D001BF91AF91C3
:1004A0009F918F913F912F910F900FBE0F901F90B2
:1004B000189526E8230F0296A11DB11DD2CF1F92D9
:1004C0000F920FB60F9211242F933F934F935F9388
:1004D0006F937F938F939F93AF93BF93EF93FF930C
:1004E00086ED91E00E94FB00FF91EF91BF91AF91EB
:1004F0009F918F917F916F915F914F913F912F913C
:100500000F900FBE0F901F9018951F920F920FB66D
:100510000F9211242F938F939F93EF93FF93E0916A
:10052000E601F091E7018081E091EC01F091ED01AD
:1005300082FD1BC090818091EF018F5F8F732091AE
:10054000F001821741F0E091EF01F0E0EA52FE4F36
:10055000958F8093EF01FF91EF919F918F912F9154
:100560000F900FBE0F901F9018958081F4CF789454
:1005700084B5826084BD84B5816084BD85B58260A8
:1005800085BD85B5816085BD80916E008160809359
:100590006E001092810080918100826080938100C2
:1005A00080918100816080938100809180008160D2
:1005B000809380008091B10084608093B10080912D
:1005C000B00081608093B00080917A008460809355
:1005D0007A0080917A00826080937A0080917A001C
:1005E000816080937A0080917A00806880937A009D
:1005F0001092C100E091E601F091E70182E0808372
:10060000E091E201F091E3011082E091E401F091C8
:10061000E50180E180831092EE01E091EA01F09122
:10062000EB0186E08083E091E801F091E9018081AF
:1006300080618083E091E801F091E9018081886028
:100640008083E091E801F091E901808180688083F6
:10065000E091E801F091E90180818F7D808385E15F
:1006600091E00E94DB0190E0492E90E0592E772422
:10067000739486ED91E00E94DB00892B31F186EDC9
:1006800091E00E94DB002091CC01892BF1F0211137
:1006900020C086ED91E00E94B9008C3349F490911E
:1006A0006501911105C07092650110926401E7CF58
:1006B000E0916401E03208F476C01092A5017092D6
:1006C000CC0110926501109264018091CC018823C5
:1006D00089F140E250E066E871E086E691E00E9430
:1006E00040096BE171E086E691E00E94450540E239
:1006F00050E0BC018CEA91E00E9440096BE171E09E
:1007000090E080E00E9445050E9427059093AB0190
:100710008093AA016BE171E090E080E00E944505C2
:100720000E9423056093A6017093A7018093A801FE
:100730009093A9018091CC01882309F4B9C010924B
:10074000CC018DE191E00E948A0106E811E0F801F8
:10075000D0E0C0E08191811142C02197812C912C81
:100760005401CF3FDC0709F45DC0F801C1908F014F
:100770000C2C000CDD08F0E3CF1AD1080D2C000C76
:10078000EE08FF08F0E0E0E061E070E080E090E07B
:10079000EC17FD076CF5AAE0B0E09B01AC010E94EC
:1007A00011083196F5CF909165018E3361F499234C
:1007B00009F465CF7092CC0110926501F0E0EA5720
:1007C000FE4F108280CF992309F459CFAE2FB0E0AD
:1007D000AA57BE4F8C93EF5FE093640150CF8053D4
:1007E0008A30E0F42196C032D10509F0B3CFB6CFFC
:1007F000A70196010E946208860E971EA81EB91EC8
:100800008CE291E00E948A01C501B4010E94E901D5
:1008100082E191E00E948A012197A3CF88248A94E3
:10082000982C5401C501B4010E94E90182E191E0D4
:100830000E948A0182E391E00E948A018CEA91E0A1
:100840000E94DB018CE391E00E948A016091AA0181
:100850007091AB01072E000C880B990B0E94E901E7
:1008600082E191E00E948A0186E491E00E948A017F
:10087000C090A601D090A701E090A801F090A90136
:10088000A7019601C701B6010E943B098823E1F048
:100890008EE491E00E948A0182E191E00E948A0147
:1008A0008AE591E00E948A0186E891E00E94DB01DE
:1008B0004114510409F4DDCE0E94E700882309F4B5
:1008C000D8CE0E940000D5CE46015701E894B7F873
:1008D0002FEF3FEF4FE75FE7C501B4010E943B09EF
:1008E00081110DC02FEF3FEF4FE75FE7C501B40166
:1008F0000E94EA0618161CF482E591E0CBCF2FEF98
:100900003FEF4FE75FE4C701B6010E9436091816B2
:100910001CF486E591E0BECF2FEF3FEF4FE75FEC91
:10092000C701B6010E94EA0687FDF3CF20E030E060
:10093000A901C701B6010E94EA0687FF09C06DE25E
:1009400086ED91E00E941D01F7FAF094F7F8F0941B
:100950002AE037ED43EA5BE3C701B6010E949B083A
:100960004B015C010E9407096B017C010E94EF06AC
:100970009B01AC01C501B4010E949A084B015C01C6
:100980004AE0C701B6010E9497016EE286ED91E050
:100990000E941D0120E030E040E251E4C501B401B5
:1009A0000E9450074B015C010E9407096B01F12C6A
:1009B000E12C4AE0C701B6010E949701C701B601C8
:1009C0000E94EF069B01AC01C501B4010E949A0888
:1009D00020E030E040E251E40E9450070E94070905
:1009E00090E080E04AE00E94970156CFE6EDF1E00A
:1009F0001382128288EE93E0A0E0B0E084839583B6
:100A0000A683B78384E091E09183808385EC90E0B6
:100A10009587848784EC90E09787868780EC90E0C8
:100A2000918B808B81EC90E0938B828B82EC90E0B9
:100A3000958B848B86EC90E0978B868B118E128E33
:100A4000138E148E0895662777270C947905FC0180
:100A500088279927E89421912032E9F3293010F072
:100A60002E30C8F32B3241F02D3239F4689404C093
:100A70000E947105820F911D219120532A30C0F3ED
:100A80001EF4909581959F4F089543E752E00E9490
:100A90004A050895FA01A191B081009719F41097C1
:100AA000E1F0CD01DC01CD010D90002011F4C00179
:100AB00013C0FB012191222319F02015D9F7F3CFA0
:100AC000FB012191201519F41E92119606C02223D4
:100AD000C1F70D900020A1F7D001FA01A193B083D6
:100AE00008957AE0979F902D879F802D910D112476
:100AF0000895B0E0A0E0EFE7F5E00C9422085C0177
:100B00007B016115710519F0DB018D939C938501C3
:100B10000F5F1F4FF501D0818D2F90E00E94C90615
:100B20006C01892BB9F5DD32B9F50F5F1F4FD50187
:100B30001196DC91C1E05801F1E0AF1AB10843E031
:100B400050E060E770E0C5010E94D206892B69F58C
:100B5000680182E0C80ED11C45E050E06BE670E011
:100B6000C6010E94D206892B21F4680197E0C90EC4
:100B7000D11CE114F10419F0D701CD92DC9260E0B0
:100B800070E080E89FEFC111FFC060E070E080E896
:100B90009FE7FAC05801BBCFDB3229F485010E5F15
:100BA0001F4FF501D181C0E0C6CF43E050E068E6B9
:100BB00070E0C5010E94D206892BE9F0F80110E02F
:100BC00000E020E030E0A9015F01B0ED8B2E8D0E3A
:100BD00089E08815C8F19C2E689491F88C2F887054
:100BE000C2FF16C0811102C00F5F1F4F3196D501A1
:100BF000DC91C92DE9CFE114F10429F00E5F1F4FFC
:100C0000F7011183008360E070E080EC9FE7BCC0D7
:100C1000882311F001501109A5E0B0E00E941108ED
:100C20009B01AC01220F331F441F551F280D311D9E
:100C3000411D511D283999E93907490799E159079B
:100C4000A8F2C6609C2ED2CFAEEF8A1206C0C3FDBA
:100C50003CC09C2E689493F8C9CFDF7DD534A9F5AC
:100C600080818D3239F4C061DF011296818162E0AA
:100C700070E006C0DF018B32C1F3119661E070E0D5
:100C800080535D01A61AB70A8A30F8F4E0E8CE1660
:100C9000ECE0DE065CF4B601660F771F660F771F87
:100CA000C60ED71ECC0CDD1CC80ED11C5D01FFEF9B
:100CB000AF1ABF0A8C9180538A30A8F1C4FF03C0D9
:100CC000D194C194D1080C0D1D1DC1FF09C0E114C0
:100CD000F10431F081E0A81AB108D701AD92BC92BD
:100CE000CA01B9010E94EF06C370C33009F49058DD
:100CF0004B015C0120E030E0A9010E94EA06882354
:100D000009F440C0CFE9D0E017FF05C01195019567
:100D10001109C7E8D0E06E01B8E1CB1AD10880E232
:100D2000E82EF12C0FC0D501B1CFFE0125913591F0
:100D3000459154910E191F09C501B4010E94500735
:100D40004B015C01D501C4010E151F0574F72497F2
:100D5000F594E794CC16DD06A9F78A2F880F8B2F20
:100D6000881F8F3F49F020E030E0A901C501B401A0
:100D70000E94EA06811106C082E290E0909376021A
:100D800080937502C501B401CDB7DEB7ECE00C94D9
:100D90003E0891110C94BD07803219F0895085509E
:100DA000C8F70895FB01DC014150504088F08D9157
:100DB00081341CF08B350CF4805E659161341CF03D
:100DC0006B350CF4605E861B611171F3990B08950D
:100DD000881BFCCF0E942C0708F481E00895E8945A
:100DE00009C097FB3EF490958095709561957F4F73
:100DF0008F4F9F4F9923A9F0F92F96E9BB27939521
:100E0000F695879577956795B795F111F8CFFAF430
:100E1000BB0F11F460FF1BC06F5F7F4F8F4F9F4F61
:100E200016C0882311F096E911C0772321F09EE8BF
:100E3000872F762F05C0662371F096E8862F70E025
:100E400060E02AF09A95660F771F881FDAF7880FFF
:100E50009695879597F90895990F0008550FAA0B55
:100E6000E0E8FEEF16161706E807F907C0F01216BD
:100E70001306E407F50798F0621B730B840B950BC0
:100E800039F40A2661F0232B242B252B21F4089515
:100E90000A2609F4A140A6958FEF811D811D0895B2
:100EA0000E9463070C94D7070E94C90738F00E947C
:100EB000D00720F0952311F00C94C0070C94C607BE
:100EC00011240C940B080E94E80770F3959FC1F35E
:100ED000950F50E0551F629FF001729FBB27F00DE8
:100EE000B11D639FAA27F00DB11DAA1F649F66273D
:100EF000B00DA11D661F829F2227B00DA11D621F8C
:100F0000739FB00DA11D621F839FA00D611D221F45
:100F1000749F3327A00D611D231F849F600D211D29
:100F2000822F762F6A2F11249F5750409AF0F1F0AC
:100F300088234AF0EE0FFF1FBB1F661F771F881F15
:100F400091505040A9F79E3F510580F00C94C00786
:100F50000C940B085F3FE4F3983ED4F386957795A5
:100F60006795B795F795E7959F5FC1F7FE2B880FBB
:100F7000911D9695879597F9089599278827089543
:100F800097F99F6780E870E060E008959FEF80EC3C
:100F9000089500240A9416161706180609060895DF
:100FA00000240A9412161306140605060895092E45
:100FB0000394000C11F4882352F0BB0F40F4BF2BB4
:100FC00011F460FF04C06F5F7F4F8F4F9F4F0895F4
:100FD00057FD9058440F551F59F05F3F71F04795EA
:100FE000880F97FB991F61F09F3F79F087950895CF
:100FF000121613061406551FF2CF4695F1DF08C0EE
:10100000161617061806991FF1CF8695710561050A
:1010100008940895E894BB2766277727CB0197F9B2
:1010200008950E945308A59F900DB49F900DA49F12
:10103000800D911D112408952F923F924F925F923F
:101040006F927F928F929F92AF92BF92CF92DF92D8
:10105000EF92FF920F931F93CF93DF93CDB7DEB73D
:10106000CA1BDB0B0FB6F894DEBF0FBECDBF0994D1
:101070002A88398848885F846E847D848C849B8428
:10108000AA84B984C884DF80EE80FD800C811B8136
:10109000AA81B981CE0FD11D0FB6F894DEBF0FBE65
:1010A000CDBFED010895A29FB001B39FC001A39FE2
:1010B000700D811D1124911DB29F700D811D112491
:1010C000911D0895DB018F939F930E941108BF919A
:1010D000AF91A29F800D911DA39F900DB29F900D87
:1010E00011240895A1E21A2EAA1BBB1BFD010DC0FD
:1010F000AA1FBB1FEE1FFF1FA217B307E407F507C8
:1011000020F0A21BB30BE40BF50B661F771F881FA3
:10111000991F1A9469F760957095809590959B0139
:10112000AC01BD01CF010895EE0FFF1F0590F491B2
:10113000E02D09945058BB27AA270E94B2080C94AE
:10114000D7070E94C90738F00E94D00720F039F471
:101150009F3F19F426F40C94C6070EF4E095E7FBC4
:101160000C94C007E92F0E94E80758F3BA176207EA
:1011700073078407950720F079F4A6F50C940A0804
:101180000EF4E0950B2EBA2FA02D0B01B9019001A2
:101190000C01CA01A0011124FF27591B99F0593FE6
:1011A00050F4503E68F11A16F040A22F232F342F2E
:1011B0004427585FF3CF469537952795A795F0407C
:1011C0005395C9F77EF41F16BA0B620B730B840B91
:1011D000BAF09150A1F0FF0FBB1F661F771F881F49
:1011E000C2F70EC0BA0F621F731F841F48F48795A1
:1011F00077956795B795F7959E3F08F0B0CF939593
:10120000880F08F09927EE0F9795879508950E940B
:10121000F00788F09F5798F0B92F9927B751B0F091
:10122000E1F0660F771F881F991F1AF0BA95C9F76A
:1012300014C0B13091F00E940A08B1E008950C94F6
:101240000A08672F782F8827B85F39F0B93FCCF3A9
:10125000869577956795B395D9F73EF490958095E7
:10126000709561957F4F8F4F9F4F08950E942C0777
:1012700008F48FEF08950E942C07880B990B0895AE
:10128000FB01DC014150504048F001900D920020DC
:10129000C9F701C01D9241505040E0F70895F894FD
:0212A000FFCF7E
:1012A200000000001D017D00AA006A01DB00B900F8
:1012B200CD000D0A00426567696E002C005265631D
:1012C2006569766564436F6E763A200053756D3AB0
:1012D20020004D6573736167653A2000496E74653D
:1012E2006765723A2000466C6F61743A20006E6145
:1012F2006E00696E66006F7666004275666665729C
:041302003A2000008D
:00000001FF
