:100000000C9435000C945D000C945D000C945D0024
:100010000C945D000C945D000C945D000C945D00EC
:100020000C945D000C945D000C945D000C945D00DC
:100030000C945D000C945D000C945D000C945D00CC
:100040000C9479010C945D000C94E9010C94C301AB
:100050000C945D000C945D000C945D000C945D00AC
:100060000C945D000C945D00F80211241FBECFEFCC
:10007000D8E0DEBFCDBF11E0A0E0B1E0EAE5F6E0F8
:1000800002C005900D92AC31B107D9F721E0ACE187
:10009000B1E001C01D92A53EB207E1F710E0C5E353
:1000A000D0E004C02197FE010E942503C433D1078C
:1000B000C9F70E941B020C942B030C940000AF9212
:1000C000BF92CF92DF92EF92FF920F931F93CF9345
:1000D000DF936C017B018B01040F151FEB015E01A7
:1000E000AE18BF08C017D10759F06991D601ED913C
:1000F000FC910190F081E02DC6010995892B79F7DB
:10010000C501DF91CF911F910F91FF90EF90DF908C
:10011000CF90BF90AF900895FC01538D448D252F53
:1001200030E0842F90E0821B930B541710F0CF9691
:10013000089501970895FC01918D828D981761F0C3
:10014000A28DAE0FBF2FB11D5D968C91928D9F5FDA
:100150009F73928F90E008958FEF9FEF0895FC01B9
:10016000918D828D981731F0828DE80FF11D858D6C
:1001700090E008958FEF9FEF0895FC01918D228DFF
:10018000892F90E0805C9F4F821B91098F73992784
:10019000089588E491E00E94BD0021E0892B09F4D4
:1001A00020E0822F089580E090E0892B29F00E94C2
:1001B000C90081110C9400000895FC01A48DA80FC2
:1001C000B92FB11DA35ABF4F2C91848D90E0019699
:1001D0008F739927848FA689B7892C93A089B189B9
:1001E0008C91837080648C93938D848D981306C05A
:1001F0000288F389E02D80818F7D80830895EF92BE
:10020000FF920F931F93CF93DF93EC0181E0888FD0
:100210009B8D8C8D98131AC0E889F989808185FFA0
:1002200015C09FB7F894EE89FF896083E889F98942
:1002300080818370806480839FBF81E090E0DF9144
:10024000CF911F910F91FF90EF900895F62E0B8D97
:1002500010E00F5F1F4F0F731127E02E8C8D8E1152
:100260000CC00FB607FCFACFE889F989808185FFB9
:10027000F5CFCE010E94DD00F1CFEB8DEC0FFD2F0D
:10028000F11DE35AFF4FF0829FB7F8940B8FEA8974
:10029000FB8980818062CFCFCF93DF93EC01888D83
:1002A0008823B9F0AA89BB89E889F9898C9185FDF1
:1002B00003C0808186FD0DC00FB607FCF7CF8C917F
:1002C00085FFF2CF808185FFEDCFCE010E94DD005A
:1002D000E9CFDF91CF910895FC0101900020E9F76B
:1002E0003197AF01481B590BBC0188E491E00C9495
:1002F0005F001F920F920FB60F9211242F933F931E
:100300008F939F93AF93BF93809144019091450148
:10031000A0914601B09147013091430123E0230FA2
:100320002D3758F50196A11DB11D209343018093EF
:10033000440190934501A0934601B09347018091F9
:100340003F0190914001A0914101B091420101967D
:10035000A11DB11D80933F0190934001A0934101E5
:10036000B0934201BF91AF919F918F913F912F9197
:100370000F900FBE0F901F90189526E8230F02963E
:10038000A11DB11DD2CF1F920F920FB60F92112453
:100390002F933F934F935F936F937F938F939F938D
:1003A000AF93BF93EF93FF9388E491E00E94DD0049
:1003B000FF91EF91BF91AF919F918F917F916F913D
:1003C0005F914F913F912F910F900FBE0F901F9013
:1003D00018951F920F920FB60F9211242F938F939F
:1003E0009F93EF93FF93E0915801F0915901808121
:1003F000E0915E01F0915F0182FD1BC090818091D0
:1004000061018F5F8F7320916201821741F0E0914B
:100410006101F0E0E85BFE4F958F80936101FF91F1
:10042000EF919F918F912F910F900FBE0F901F9082
:1004300018958081F4CF789484B5826084BD84B5AA
:10044000816084BD85B5826085BD85B5816085BDCF
:1004500080916E00816080936E0010928100809187
:10046000810082608093810080918100816080930F
:100470008100809180008160809380008091B10034
:1004800084608093B1008091B00081608093B0005F
:1004900080917A00846080937A0080917A008260F3
:1004A00080937A0080917A00816080937A008091B5
:1004B0007A00806880937A001092C100E091580120
:1004C000F091590182E08083E0915401F09155014F
:1004D0001082E0915601F091570180E180831092E3
:1004E0006001E0915C01F0915D0186E08083E09124
:1004F0005A01F0915B01808180618083E0915A0113
:10050000F0915B01808188608083E0915A01F091D5
:100510005B01808180688083E0915A01F0915B01EA
:1005200080818F7D808382E191E00E946C0188E16F
:1005300091E00E946C0100E010E0C1E088E491E0ED
:100540000E94BD00892B29F188E491E00E94BD0042
:1005500020913E01892BE9F021111FC088E491E030
:100560000E949B008C3349F490911D01911105C0AC
:10057000C0931D0110921C01E7CFE0911C01E032F5
:10058000E0F010923D01C0933E0110921D011092C7
:100590001C0180913E01882331F010923E018EE1D2
:1005A00091E00E946C010115110541F20E94C90001
:1005B000882321F20E940000C1CF90911D018E334B
:1005C00059F4992309F2C0933E0110921D01F0E005
:1005D000E25EFE4F1082DBCF992309F4B5CFAE2F38
:1005E000B0E0A25EBE4F8C93EF5FE0931C01ACCFF6
:1005F000E8E4F1E01382128288EE93E0A0E0B0E03C
:1006000084839583A683B78384E091E0918380837C
:1006100085EC90E09587848784EC90E097878687C7
:1006200080EC90E0918B808B81EC90E0938B828BBF
:1006300082EC90E0958B848B86EC90E0978B868B98
:10064000118E128E138E148E0895EE0FFF1F0590DB
:0A065000F491E02D0994F894FFCF17
:10065A0000000000FF005F008C004C01BD009B0001
:0C066A00AF00426567696E000D0A0000D9
:00000001FF
